{
  "contractName": "Ballot",
  "abi": [
    {
      "inputs": [],
      "stateMutability": "nonpayable",
      "type": "constructor"
    },
    {
      "anonymous": false,
      "inputs": [
        {
          "indexed": false,
          "internalType": "uint256",
          "name": "pollId",
          "type": "uint256"
        },
        {
          "indexed": false,
          "internalType": "address",
          "name": "candidate",
          "type": "address"
        }
      ],
      "name": "CandidateJoined",
      "type": "event"
    },
    {
      "anonymous": false,
      "inputs": [
        {
          "indexed": false,
          "internalType": "uint256",
          "name": "pollId",
          "type": "uint256"
        },
        {
          "indexed": false,
          "internalType": "string",
          "name": "description",
          "type": "string"
        },
        {
          "indexed": false,
          "internalType": "uint256",
          "name": "endTime",
          "type": "uint256"
        },
        {
          "indexed": false,
          "internalType": "uint256",
          "name": "reward",
          "type": "uint256"
        }
      ],
      "name": "PollCreated",
      "type": "event"
    },
    {
      "anonymous": false,
      "inputs": [
        {
          "indexed": false,
          "internalType": "uint256",
          "name": "pollId",
          "type": "uint256"
        },
        {
          "indexed": false,
          "internalType": "address",
          "name": "winner",
          "type": "address"
        }
      ],
      "name": "PollEnded",
      "type": "event"
    },
    {
      "anonymous": false,
      "inputs": [
        {
          "indexed": false,
          "internalType": "uint256",
          "name": "pollId",
          "type": "uint256"
        },
        {
          "indexed": false,
          "internalType": "address",
          "name": "voter",
          "type": "address"
        },
        {
          "indexed": false,
          "internalType": "address",
          "name": "candidate",
          "type": "address"
        }
      ],
      "name": "Voted",
      "type": "event"
    },
    {
      "inputs": [],
      "name": "owner",
      "outputs": [
        {
          "internalType": "address",
          "name": "",
          "type": "address"
        }
      ],
      "stateMutability": "view",
      "type": "function",
      "constant": true
    },
    {
      "inputs": [],
      "name": "pollCount",
      "outputs": [
        {
          "internalType": "uint256",
          "name": "",
          "type": "uint256"
        }
      ],
      "stateMutability": "view",
      "type": "function",
      "constant": true
    },
    {
      "inputs": [
        {
          "internalType": "uint256",
          "name": "",
          "type": "uint256"
        }
      ],
      "name": "polls",
      "outputs": [
        {
          "internalType": "string",
          "name": "description",
          "type": "string"
        },
        {
          "internalType": "address",
          "name": "creator",
          "type": "address"
        },
        {
          "internalType": "uint256",
          "name": "endTime",
          "type": "uint256"
        },
        {
          "internalType": "uint256",
          "name": "reward",
          "type": "uint256"
        },
        {
          "internalType": "bool",
          "name": "ended",
          "type": "bool"
        },
        {
          "internalType": "address",
          "name": "winner",
          "type": "address"
        },
        {
          "internalType": "uint256",
          "name": "voterCount",
          "type": "uint256"
        }
      ],
      "stateMutability": "view",
      "type": "function",
      "constant": true
    },
    {
      "inputs": [
        {
          "internalType": "string",
          "name": "description",
          "type": "string"
        }
      ],
      "name": "createPoll",
      "outputs": [],
      "stateMutability": "payable",
      "type": "function",
      "payable": true
    },
    {
      "inputs": [
        {
          "internalType": "uint256",
          "name": "pollId",
          "type": "uint256"
        }
      ],
      "name": "joinPoll",
      "outputs": [],
      "stateMutability": "payable",
      "type": "function",
      "payable": true
    },
    {
      "inputs": [
        {
          "internalType": "uint256",
          "name": "pollId",
          "type": "uint256"
        },
        {
          "internalType": "address",
          "name": "candidate",
          "type": "address"
        }
      ],
      "name": "vote",
      "outputs": [],
      "stateMutability": "nonpayable",
      "type": "function"
    },
    {
      "inputs": [
        {
          "internalType": "uint256",
          "name": "pollId",
          "type": "uint256"
        }
      ],
      "name": "getCandidates",
      "outputs": [
        {
          "internalType": "address[]",
          "name": "",
          "type": "address[]"
        }
      ],
      "stateMutability": "view",
      "type": "function",
      "constant": true
    },
    {
      "inputs": [],
      "name": "getPolls",
      "outputs": [
        {
          "internalType": "string",
          "name": "",
          "type": "string"
        }
      ],
      "stateMutability": "view",
      "type": "function",
      "constant": true
    },
    {
      "inputs": [],
      "name": "getOngoingPolls",
      "outputs": [
        {
          "components": [
            {
              "internalType": "uint256",
              "name": "pollId",
              "type": "uint256"
            },
            {
              "internalType": "string",
              "name": "description",
              "type": "string"
            },
            {
              "internalType": "address",
              "name": "creator",
              "type": "address"
            }
          ],
          "internalType": "struct Ballot.SimplePoll[]",
          "name": "",
          "type": "tuple[]"
        }
      ],
      "stateMutability": "view",
      "type": "function",
      "constant": true
    },
    {
      "inputs": [],
      "name": "getPollNum",
      "outputs": [
        {
          "internalType": "uint256",
          "name": "",
          "type": "uint256"
        }
      ],
      "stateMutability": "view",
      "type": "function",
      "constant": true
    },
    {
      "inputs": [
        {
          "internalType": "uint256",
          "name": "pollId",
          "type": "uint256"
        }
      ],
      "name": "getWinner",
      "outputs": [
        {
          "internalType": "address",
          "name": "winner",
          "type": "address"
        }
      ],
      "stateMutability": "view",
      "type": "function",
      "constant": true
    }
  ],
  "bytecode": "0x608060405234801561001057600080fd5b5033600260006101000a81548173ffffffffffffffffffffffffffffffffffffffff021916908373ffffffffffffffffffffffffffffffffffffffff160217905550612755806100616000396000f3fe60806040526004361061009c5760003560e01c806374a9ced91161006457806374a9ced91461019a57806383fc0f09146101b65780638da5cb5b146101d25780639207891d146101fd578063ac2f007414610228578063ed3aa3401461026b5761009c565b806302d947ef146100a1578063120fe89b146100ca57806312a4a95d146100f55780633e39a7a5146101205780634129b2c91461015d575b600080fd5b3480156100ad57600080fd5b506100c860048036038101906100c391906116e0565b610296565b005b3480156100d657600080fd5b506100df61067d565b6040516100ec91906117b9565b60405180910390f35b34801561010157600080fd5b5061010a610868565b60405161011791906117ea565b60405180910390f35b34801561012c57600080fd5b5061014760048036038101906101429190611805565b610872565b60405161015491906118f0565b60405180910390f35b34801561016957600080fd5b50610184600480360381019061017f9190611805565b6109c1565b6040516101919190611921565b60405180910390f35b6101b460048036038101906101af9190611a71565b610aac565b005b6101d060048036038101906101cb9190611805565b610c17565b005b3480156101de57600080fd5b506101e7610eb6565b6040516101f49190611921565b60405180910390f35b34801561020957600080fd5b50610212610edc565b60405161021f91906117ea565b60405180910390f35b34801561023457600080fd5b5061024f600480360381019061024a9190611805565b610ee2565b6040516102629796959493929190611ad5565b60405180910390f35b34801561027757600080fd5b50610280610ff9565b60405161028d9190611cb6565b60405180910390f35b81600073ffffffffffffffffffffffffffffffffffffffff1660008083815260200190815260200160002060010160009054906101000a900473ffffffffffffffffffffffffffffffffffffffff1673ffffffffffffffffffffffffffffffffffffffff160361033b576040517f08c379a000000000000000000000000000000000000000000000000000000000815260040161033290611d24565b60405180910390fd5b600080600085815260200190815260200160002090508060040160009054906101000a900460ff16156103a3576040517f08c379a000000000000000000000000000000000000000000000000000000000815260040161039a90611d90565b60405180910390fd5b8060060160003373ffffffffffffffffffffffffffffffffffffffff1673ffffffffffffffffffffffffffffffffffffffff16815260200190815260200160002060000160019054906101000a900460ff1615610435576040517f08c379a000000000000000000000000000000000000000000000000000000000815260040161042c90611dfc565b60405180910390fd5b8060060160003373ffffffffffffffffffffffffffffffffffffffff1673ffffffffffffffffffffffffffffffffffffffff16815260200190815260200160002060000160009054906101000a900460ff16156104c7576040517f08c379a00000000000000000000000000000000000000000000000000000000081526004016104be90611e8e565b60405180910390fd5b8060060160008473ffffffffffffffffffffffffffffffffffffffff1673ffffffffffffffffffffffffffffffffffffffff16815260200190815260200160002060000160009054906101000a900460ff16610558576040517f08c379a000000000000000000000000000000000000000000000000000000000815260040161054f90611efa565b60405180910390fd5b60018160060160003373ffffffffffffffffffffffffffffffffffffffff1673ffffffffffffffffffffffffffffffffffffffff16815260200190815260200160002060000160016101000a81548160ff0219169083151502179055508060070160008473ffffffffffffffffffffffffffffffffffffffff1673ffffffffffffffffffffffffffffffffffffffff168152602001908152602001600020600081548092919061060790611f49565b919050555080600801600081548092919061062190611f49565b91905055507ff6c8f1f54b2f54fb963820203fdef5b9aefb56ae2c4dd8b6133e151791a07f3684338560405161065993929190611f91565b60405180910390a160058160080154106106775761067684611233565b5b50505050565b6060806000600190505b60015481116108415760008060008381526020019081526020016000209050606060005b826005018054905081101561073157818360050182815481106106d1576106d0611fc8565b5b9060005260206000200160009054906101000a900473ffffffffffffffffffffffffffffffffffffffff1660405160200161070d9291906120dd565b6040516020818303038152906040529150808061072990611f49565b9150506106ab565b508060405160200161074391906121a8565b604051602081830303815290604052905083826000018360040160009054906101000a900460ff166107aa576040518060400160405280600581526020017f66616c73650000000000000000000000000000000000000000000000000000008152506107e1565b6040518060400160405280600481526020017f74727565000000000000000000000000000000000000000000000000000000008152505b8460040160019054906101000a900473ffffffffffffffffffffffffffffffffffffffff168460405160200161081b959493929190612476565b60405160208183030381529060405293505050808061083990611f49565b915050610687565b508060405160200161085391906121a8565b60405160208183030381529060405291505090565b6000600154905090565b606081600073ffffffffffffffffffffffffffffffffffffffff1660008083815260200190815260200160002060010160009054906101000a900473ffffffffffffffffffffffffffffffffffffffff1673ffffffffffffffffffffffffffffffffffffffff1603610919576040517f08c379a000000000000000000000000000000000000000000000000000000000815260040161091090611d24565b60405180910390fd5b60008060008581526020019081526020016000209050806005018054806020026020016040519081016040528092919081815260200182805480156109b357602002820191906000526020600020905b8160009054906101000a900473ffffffffffffffffffffffffffffffffffffffff1673ffffffffffffffffffffffffffffffffffffffff1681526020019060010190808311610969575b505050505092505050919050565b600081600073ffffffffffffffffffffffffffffffffffffffff1660008083815260200190815260200160002060010160009054906101000a900473ffffffffffffffffffffffffffffffffffffffff1673ffffffffffffffffffffffffffffffffffffffff1603610a68576040517f08c379a0000000000000000000000000000000000000000000000000000000008152600401610a5f90611d24565b60405180910390fd5b600080600085815260200190815260200160002090508060040160019054906101000a900473ffffffffffffffffffffffffffffffffffffffff1692505050919050565b60016000815480929190610abf90611f49565b91905055506000612710905060008060006001548152602001908152602001600020905082816000019080519060200190610afb92919061155e565b50338160010160006101000a81548173ffffffffffffffffffffffffffffffffffffffff021916908373ffffffffffffffffffffffffffffffffffffffff1602179055508142610b4b91906124fc565b81600201819055506001816003018190555060008160040160006101000a81548160ff0219169083151502179055506000816008018190555060008160040160016101000a81548173ffffffffffffffffffffffffffffffffffffffff021916908373ffffffffffffffffffffffffffffffffffffffff1602179055507f6304d459a1238719da7fda0b776e00c855ba5850f0a7f634eca6f8e985e4509f6001548260000183600201548460030154604051610c0a94939291906125d2565b60405180910390a1505050565b80600073ffffffffffffffffffffffffffffffffffffffff1660008083815260200190815260200160002060010160009054906101000a900473ffffffffffffffffffffffffffffffffffffffff1673ffffffffffffffffffffffffffffffffffffffff1603610cbc576040517f08c379a0000000000000000000000000000000000000000000000000000000008152600401610cb390611d24565b60405180910390fd5b600080600084815260200190815260200160002090508060040160009054906101000a900460ff1615610d24576040517f08c379a0000000000000000000000000000000000000000000000000000000008152600401610d1b90611d90565b60405180910390fd5b8060060160003373ffffffffffffffffffffffffffffffffffffffff1673ffffffffffffffffffffffffffffffffffffffff16815260200190815260200160002060000160009054906101000a900460ff1615610db6576040517f08c379a0000000000000000000000000000000000000000000000000000000008152600401610dad9061266a565b60405180910390fd5b60018160060160003373ffffffffffffffffffffffffffffffffffffffff1673ffffffffffffffffffffffffffffffffffffffff16815260200190815260200160002060000160006101000a81548160ff02191690831515021790555080600501339080600181540180825580915050600190039060005260206000200160009091909190916101000a81548173ffffffffffffffffffffffffffffffffffffffff021916908373ffffffffffffffffffffffffffffffffffffffff1602179055507f697a1c8a91049d5ae1009b71d5d28703ad2ce4a4bb7d0d77d8c23bdd8ca4854f8333604051610ea992919061268a565b60405180910390a1505050565b600260009054906101000a900473ffffffffffffffffffffffffffffffffffffffff1681565b60015481565b6000602052806000526040600020600091509050806000018054610f0590612250565b80601f0160208091040260200160405190810160405280929190818152602001828054610f3190612250565b8015610f7e5780601f10610f5357610100808354040283529160200191610f7e565b820191906000526020600020905b815481529060010190602001808311610f6157829003601f168201915b5050505050908060010160009054906101000a900473ffffffffffffffffffffffffffffffffffffffff16908060020154908060030154908060040160009054906101000a900460ff16908060040160019054906101000a900473ffffffffffffffffffffffffffffffffffffffff16908060080154905087565b6060600080600190505b60015481116110555760008082815260200190815260200160002060040160009054906101000a900460ff1661104257818061103e90611f49565b9250505b808061104d90611f49565b915050611003565b5060008167ffffffffffffffff81111561107257611071611946565b5b6040519080825280602002602001820160405280156110ab57816020015b6110986115e4565b8152602001906001900390816110905790505b509050600080600190505b60015481116112295760008082815260200190815260200160002060040160009054906101000a900460ff16611216576040518060600160405280828152602001600080848152602001908152602001600020600001805461111790612250565b80601f016020809104026020016040519081016040528092919081815260200182805461114390612250565b80156111905780601f1061116557610100808354040283529160200191611190565b820191906000526020600020905b81548152906001019060200180831161117357829003601f168201915b5050505050815260200160008084815260200190815260200160002060010160009054906101000a900473ffffffffffffffffffffffffffffffffffffffff1673ffffffffffffffffffffffffffffffffffffffff168152508383815181106111fc576111fb611fc8565b5b6020026020010181905250818061121290611f49565b9250505b808061122190611f49565b9150506110b6565b5081935050505090565b80600073ffffffffffffffffffffffffffffffffffffffff1660008083815260200190815260200160002060010160009054906101000a900473ffffffffffffffffffffffffffffffffffffffff1673ffffffffffffffffffffffffffffffffffffffff16036112d8576040517f08c379a00000000000000000000000000000000000000000000000000000000081526004016112cf90611d24565b60405180910390fd5b600080600084815260200190815260200160002090508060040160009054906101000a900460ff1615611340576040517f08c379a0000000000000000000000000000000000000000000000000000000008152600401611337906126ff565b60405180910390fd5b6000806000905060005b83600501805490508110156114bd578184600701600086600501848154811061137657611375611fc8565b5b9060005260206000200160009054906101000a900473ffffffffffffffffffffffffffffffffffffffff1673ffffffffffffffffffffffffffffffffffffffff1673ffffffffffffffffffffffffffffffffffffffff1681526020019081526020016000205411156114aa578360070160008560050183815481106113fe576113fd611fc8565b5b9060005260206000200160009054906101000a900473ffffffffffffffffffffffffffffffffffffffff1673ffffffffffffffffffffffffffffffffffffffff1673ffffffffffffffffffffffffffffffffffffffff16815260200190815260200160002054915083600501818154811061147c5761147b611fc8565b5b9060005260206000200160009054906101000a900473ffffffffffffffffffffffffffffffffffffffff1692505b80806114b590611f49565b91505061134a565b50818360040160016101000a81548173ffffffffffffffffffffffffffffffffffffffff021916908373ffffffffffffffffffffffffffffffffffffffff16021790555060018360040160006101000a81548160ff0219169083151502179055507fce994ead15e72a77a86ddf3b0184783c61c9af7e3aae02d7c0bdf3b4268fa188858360405161154f92919061268a565b60405180910390a15050505050565b82805461156a90612250565b90600052602060002090601f01602090048101928261158c57600085556115d3565b82601f106115a557805160ff19168380011785556115d3565b828001600101855582156115d3579182015b828111156115d25782518255916020019190600101906115b7565b5b5090506115e0919061161b565b5090565b60405180606001604052806000815260200160608152602001600073ffffffffffffffffffffffffffffffffffffffff1681525090565b5b8082111561163457600081600090555060010161161c565b5090565b6000604051905090565b600080fd5b600080fd5b6000819050919050565b61165f8161164c565b811461166a57600080fd5b50565b60008135905061167c81611656565b92915050565b600073ffffffffffffffffffffffffffffffffffffffff82169050919050565b60006116ad82611682565b9050919050565b6116bd816116a2565b81146116c857600080fd5b50565b6000813590506116da816116b4565b92915050565b600080604083850312156116f7576116f6611642565b5b60006117058582860161166d565b9250506020611716858286016116cb565b9150509250929050565b600081519050919050565b600082825260208201905092915050565b60005b8381101561175a57808201518184015260208101905061173f565b83811115611769576000848401525b50505050565b6000601f19601f8301169050919050565b600061178b82611720565b611795818561172b565b93506117a581856020860161173c565b6117ae8161176f565b840191505092915050565b600060208201905081810360008301526117d38184611780565b905092915050565b6117e48161164c565b82525050565b60006020820190506117ff60008301846117db565b92915050565b60006020828403121561181b5761181a611642565b5b60006118298482850161166d565b91505092915050565b600081519050919050565b600082825260208201905092915050565b6000819050602082019050919050565b611867816116a2565b82525050565b6000611879838361185e565b60208301905092915050565b6000602082019050919050565b600061189d82611832565b6118a7818561183d565b93506118b28361184e565b8060005b838110156118e35781516118ca888261186d565b97506118d583611885565b9250506001810190506118b6565b5085935050505092915050565b6000602082019050818103600083015261190a8184611892565b905092915050565b61191b816116a2565b82525050565b60006020820190506119366000830184611912565b92915050565b600080fd5b600080fd5b7f4e487b7100000000000000000000000000000000000000000000000000000000600052604160045260246000fd5b61197e8261176f565b810181811067ffffffffffffffff8211171561199d5761199c611946565b5b80604052505050565b60006119b0611638565b90506119bc8282611975565b919050565b600067ffffffffffffffff8211156119dc576119db611946565b5b6119e58261176f565b9050602081019050919050565b82818337600083830152505050565b6000611a14611a0f846119c1565b6119a6565b905082815260208101848484011115611a3057611a2f611941565b5b611a3b8482856119f2565b509392505050565b600082601f830112611a5857611a5761193c565b5b8135611a68848260208601611a01565b91505092915050565b600060208284031215611a8757611a86611642565b5b600082013567ffffffffffffffff811115611aa557611aa4611647565b5b611ab184828501611a43565b91505092915050565b60008115159050919050565b611acf81611aba565b82525050565b600060e0820190508181036000830152611aef818a611780565b9050611afe6020830189611912565b611b0b60408301886117db565b611b1860608301876117db565b611b256080830186611ac6565b611b3260a0830185611912565b611b3f60c08301846117db565b98975050505050505050565b600081519050919050565b600082825260208201905092915050565b6000819050602082019050919050565b611b808161164c565b82525050565b600082825260208201905092915050565b6000611ba282611720565b611bac8185611b86565b9350611bbc81856020860161173c565b611bc58161176f565b840191505092915050565b6000606083016000830151611be86000860182611b77565b5060208301518482036020860152611c008282611b97565b9150506040830151611c15604086018261185e565b508091505092915050565b6000611c2c8383611bd0565b905092915050565b6000602082019050919050565b6000611c4c82611b4b565b611c568185611b56565b935083602082028501611c6885611b67565b8060005b85811015611ca45784840389528151611c858582611c20565b9450611c9083611c34565b925060208a01995050600181019050611c6c565b50829750879550505050505092915050565b60006020820190508181036000830152611cd08184611c41565b905092915050565b7f506f6c6c20646f6573206e6f7420657869737400000000000000000000000000600082015250565b6000611d0e60138361172b565b9150611d1982611cd8565b602082019050919050565b60006020820190508181036000830152611d3d81611d01565b9050919050565b7f506f6c6c2068617320656e646564000000000000000000000000000000000000600082015250565b6000611d7a600e8361172b565b9150611d8582611d44565b602082019050919050565b60006020820190508181036000830152611da981611d6d565b9050919050565b7f416c726561647920766f74656400000000000000000000000000000000000000600082015250565b6000611de6600d8361172b565b9150611df182611db0565b602082019050919050565b60006020820190508181036000830152611e1581611dd9565b9050919050565b7f43616e646964617465732063616e6e6f7420766f746520666f72207468656d7360008201527f656c766573000000000000000000000000000000000000000000000000000000602082015250565b6000611e7860258361172b565b9150611e8382611e1c565b604082019050919050565b60006020820190508181036000830152611ea781611e6b565b9050919050565b7f43616e646964617465206e6f74206a6f696e6564000000000000000000000000600082015250565b6000611ee460148361172b565b9150611eef82611eae565b602082019050919050565b60006020820190508181036000830152611f1381611ed7565b9050919050565b7f4e487b7100000000000000000000000000000000000000000000000000000000600052601160045260246000fd5b6000611f548261164c565b91507fffffffffffffffffffffffffffffffffffffffffffffffffffffffffffffffff8203611f8657611f85611f1a565b5b600182019050919050565b6000606082019050611fa660008301866117db565b611fb36020830185611912565b611fc06040830184611912565b949350505050565b7f4e487b7100000000000000000000000000000000000000000000000000000000600052603260045260246000fd5b600081519050919050565b600081905092915050565b600061201882611ff7565b6120228185612002565b935061203281856020860161173c565b80840191505092915050565b60008160601b9050919050565b60006120568261203e565b9050919050565b60006120688261204b565b9050919050565b61208061207b826116a2565b61205d565b82525050565b600081905092915050565b7f2c00000000000000000000000000000000000000000000000000000000000000600082015250565b60006120c7600183612086565b91506120d282612091565b600182019050919050565b60006120e9828561200d565b91506120f5828461206f565b601482019150612104826120ba565b91508190509392505050565b7f5b00000000000000000000000000000000000000000000000000000000000000600082015250565b6000612146600183612086565b915061215182612110565b600182019050919050565b7f5d00000000000000000000000000000000000000000000000000000000000000600082015250565b6000612192600183612086565b915061219d8261215c565b600182019050919050565b60006121b382612139565b91506121bf828461200d565b91506121ca82612185565b915081905092915050565b7f7b226465736372697074696f6e223a2200000000000000000000000000000000600082015250565b600061220b601083612086565b9150612216826121d5565b601082019050919050565b7f4e487b7100000000000000000000000000000000000000000000000000000000600052602260045260246000fd5b6000600282049050600182168061226857607f821691505b60208210810361227b5761227a612221565b5b50919050565b60008190508160005260206000209050919050565b600081546122a381612250565b6122ad8186612086565b945060018216600081146122c857600181146122d95761230c565b60ff1983168652818601935061230c565b6122e285612281565b60005b83811015612304578154818901526001820191506020810190506122e5565b838801955050505b50505092915050565b7f222c22656e646564223a00000000000000000000000000000000000000000000600082015250565b600061234b600a83612086565b915061235682612315565b600a82019050919050565b600061236c82611720565b6123768185612086565b935061238681856020860161173c565b80840191505092915050565b7f2c2277696e6e6572223a22000000000000000000000000000000000000000000600082015250565b60006123c8600b83612086565b91506123d382612392565b600b82019050919050565b7f222c2263616e64696461746573223a0000000000000000000000000000000000600082015250565b6000612414600f83612086565b915061241f826123de565b600f82019050919050565b7f7d2c000000000000000000000000000000000000000000000000000000000000600082015250565b6000612460600283612086565b915061246b8261242a565b600282019050919050565b6000612482828861200d565b915061248d826121fe565b91506124998287612296565b91506124a48261233e565b91506124b08286612361565b91506124bb826123bb565b91506124c7828561206f565b6014820191506124d682612407565b91506124e2828461200d565b91506124ed82612453565b91508190509695505050505050565b60006125078261164c565b91506125128361164c565b9250827fffffffffffffffffffffffffffffffffffffffffffffffffffffffffffffffff0382111561254757612546611f1a565b5b828201905092915050565b6000815461255f81612250565b612569818661172b565b945060018216600081146125845760018114612596576125c9565b60ff19831686526020860193506125c9565b61259f85612281565b60005b838110156125c1578154818901526001820191506020810190506125a2565b808801955050505b50505092915050565b60006080820190506125e760008301876117db565b81810360208301526125f98186612552565b905061260860408301856117db565b61261560608301846117db565b95945050505050565b7f416c7265616479206a6f696e6564000000000000000000000000000000000000600082015250565b6000612654600e8361172b565b915061265f8261261e565b602082019050919050565b6000602082019050818103600083015261268381612647565b9050919050565b600060408201905061269f60008301856117db565b6126ac6020830184611912565b9392505050565b7f506f6c6c2068617320616c726561647920656e64656400000000000000000000600082015250565b60006126e960168361172b565b91506126f4826126b3565b602082019050919050565b60006020820190508181036000830152612718816126dc565b905091905056fea2646970667358221220a2426c70cdb9f42a689208f0de97eef071952507f492e451e5dda347fd7f720e64736f6c634300080e0033",
  "immutableReferences": {},
  "source": "// SPDX-License-Identifier: GPL-3.0\r\n\r\npragma solidity ^0.8.0;\r\n\r\ncontract Ballot {\r\n    struct Voter {\r\n        bool joined;  // if true, that person already joined as a candidate\r\n        bool voted;   // if true, that person already voted\r\n        uint vote;    // index of the voted candidate\r\n    }\r\n\r\n    struct Poll {\r\n        string description;\r\n        address creator;\r\n        uint endTime;\r\n        uint reward;\r\n        bool ended;\r\n        address winner;\r\n        address[] candidates;\r\n        mapping(address => Voter) voters;\r\n        mapping(address => uint) votes;\r\n        uint voterCount; // Track number of voters\r\n    }\r\n\r\n    struct SimplePoll {\r\n        uint pollId;\r\n        string description;\r\n        address creator;\r\n    }\r\n\r\n    mapping(uint => Poll) public polls;\r\n    uint public pollCount;\r\n    address public owner;\r\n\r\n    constructor() {\r\n        owner = address(uint160(msg.sender));\r\n    }\r\n\r\n    event PollCreated(uint pollId, string description, uint endTime, uint reward);\r\n    event CandidateJoined(uint pollId, address candidate);\r\n    event Voted(uint pollId, address voter, address candidate);\r\n    event PollEnded(uint pollId, address winner);\r\n\r\n    modifier onlyOwner() {\r\n        require(msg.sender == owner, \"Only owner can call this function\");\r\n        _;\r\n    }\r\n\r\n    modifier pollExists(uint pollId) {\r\n        require(polls[pollId].creator != address(0), \"Poll does not exist\");\r\n        _;\r\n    }\r\n\r\n    modifier onlyPollCreator(uint pollId) {\r\n        require(polls[pollId].creator == msg.sender, \"Only poll creator can call this function\");\r\n        _;\r\n    }\r\n\r\n    function createPoll(string memory description) public payable {\r\n        pollCount++;\r\n        uint duration = 10000;\r\n        Poll storage poll = polls[pollCount];\r\n        poll.description = description;\r\n        poll.creator = msg.sender;\r\n        poll.endTime = block.timestamp + duration;\r\n        poll.reward = 1;\r\n        poll.ended = false;\r\n        poll.voterCount = 0;\r\n        poll.winner = address(0);\r\n\r\n        emit PollCreated(pollCount, poll.description, poll.endTime, poll.reward);\r\n    }\r\n\r\n    function joinPoll(uint pollId) public payable pollExists(pollId) {\r\n        Poll storage poll = polls[pollId];\r\n        require(!poll.ended, \"Poll has ended\");\r\n        require(!poll.voters[msg.sender].joined, \"Already joined\");\r\n\r\n        poll.voters[msg.sender].joined = true;\r\n        poll.candidates.push(msg.sender);\r\n\r\n        // payable(poll.creator).transfer(1);\r\n\r\n        emit CandidateJoined(pollId, msg.sender);\r\n    }\r\n\r\n    function vote(uint pollId, address candidate) public pollExists(pollId) {\r\n        Poll storage poll = polls[pollId];\r\n        require(!poll.ended, \"Poll has ended\");\r\n        require(!poll.voters[msg.sender].voted, \"Already voted\");\r\n        require(!poll.voters[msg.sender].joined, \"Candidates cannot vote for themselves\");\r\n        require(poll.voters[candidate].joined, \"Candidate not joined\");\r\n\r\n        poll.voters[msg.sender].voted = true;\r\n        poll.votes[candidate]++;\r\n        poll.voterCount++;\r\n\r\n        emit Voted(pollId, msg.sender, candidate);\r\n\r\n        if (poll.voterCount >= 5) {\r\n            endPoll(pollId);\r\n        }\r\n    }\r\n\r\n    function endPoll(uint pollId) internal pollExists(pollId) {\r\n        Poll storage poll = polls[pollId];\r\n        require(!poll.ended, \"Poll has already ended\");\r\n\r\n        address winningCandidate;\r\n        uint maxVotes = 0;\r\n        for (uint i = 0; i < poll.candidates.length; i++) {\r\n            if (poll.votes[poll.candidates[i]] > maxVotes) {\r\n                maxVotes = poll.votes[poll.candidates[i]];\r\n                winningCandidate = poll.candidates[i];\r\n            }\r\n        }\r\n\r\n        poll.winner = winningCandidate;\r\n        poll.ended = true;\r\n\r\n        // if (winningCandidate != address(0)) {\r\n        //     payable(winningCandidate).transfer(poll.reward);\r\n        // }\r\n\r\n        emit PollEnded(pollId, winningCandidate);\r\n    }\r\n\r\n    function getCandidates(uint pollId) public view pollExists(pollId) returns (address[] memory) {\r\n        Poll storage poll = polls[pollId];\r\n        return poll.candidates;\r\n    }\r\n\r\n    function getPolls() public view returns (string memory) {\r\n        bytes memory pollData;\r\n\r\n        for (uint i = 1; i <= pollCount; i++) {\r\n            Poll storage poll = polls[i];\r\n            bytes memory candidatesData;\r\n            for (uint j = 0; j < poll.candidates.length; j++) {\r\n                candidatesData = abi.encodePacked(candidatesData, poll.candidates[j], \",\");\r\n            }\r\n            candidatesData = abi.encodePacked(\"[\", candidatesData, \"]\");\r\n\r\n            pollData = abi.encodePacked(\r\n                pollData,\r\n                '{\"description\":\"', poll.description,\r\n                '\",\"ended\":', poll.ended ? \"true\" : \"false\",\r\n                ',\"winner\":\"', poll.winner,\r\n                '\",\"candidates\":', candidatesData,\r\n                '},'\r\n            );\r\n        }\r\n\r\n        return string(abi.encodePacked(\"[\", pollData, \"]\"));\r\n    }\r\n\r\n    function getOngoingPolls() public view returns (SimplePoll[] memory) {\r\n        uint count = 0;\r\n        for (uint i = 1; i <= pollCount; i++) {\r\n            if (!polls[i].ended) {\r\n                count++;\r\n            }\r\n        }\r\n\r\n        SimplePoll[] memory ongoingPolls = new SimplePoll[](count);\r\n        uint index = 0;\r\n        for (uint i = 1; i <= pollCount; i++) {\r\n            if (!polls[i].ended) {\r\n                ongoingPolls[index] = SimplePoll({\r\n                    pollId: i,\r\n                    description: polls[i].description,\r\n                    creator: polls[i].creator\r\n                });\r\n                index++;\r\n            }\r\n        }\r\n\r\n        return ongoingPolls;\r\n    }\r\n\r\n    function getPollNum() public view returns (uint) {\r\n        return pollCount;\r\n    }\r\n\r\n    function getWinner(uint pollId) public view pollExists(pollId) returns (address winner) {\r\n        Poll storage poll = polls[pollId];\r\n        return poll.winner;\r\n    }\r\n}\r\n",
  "sourcePath": "D:\\\\\\code\\dserver\\contracts\\Ballot.sol",
  "compiler": {
    "name": "solc",
    "version": "0.8.14+commit.80d49f37.Emscripten.clang"
  },
  "schemaVersion": "3.4.16",
  "updatedAt": "2024-06-19T06:55:42.059Z",
  "networkType": "ethereum",
  "devdoc": {
    "kind": "dev",
    "methods": {},
    "version": 1
  },
  "userdoc": {
    "kind": "user",
    "methods": {},
    "version": 1
  }
}